:100000000C943B010C9461010C9461010C9461010E
:100010000C9461010C9461010C9461010C946101D8
:100020000C9461010C9461010C9461010C946101C8
:100030000C9461010C9461010C9461010C946101B8
:100040000C9461010C9461010C9461010C946101A8
:100050000C9461010C9461010C9461010C94610198
:100060000C9461010C9461010C9461010C94610188
:100070000C9461010C9461010C9461010C94610178
:100080000C9461010C9461010C9461010C94610168
:100090000C9461010C9461010C9461010C94610158
:1000A0000C9461010C9461010C9461010C94610148
:1000B0000C9461010C9461010C9461010C94610138
:1000C0000C9461010C9461010C9461010C94610128
:1000D0000C9461010C9461010C9461010C94610118
:1000E0000C9461010C9461010C9461010C94610108
:1000F0000C9461010C941B020C9461010C944D0250
:100100000C9461010C9461010C9461010C946101E7
:100110000C9461010C9461010C9461010C946101D7
:100120000C9461010C9461010C9461010C946101C7
:100130000C9461010C9461010C9461010C946101B7
:100140000C9461010C9461010C9461010C946101A7
:100150000C9461010C9461010C9461010C94610197
:100160000C9461010C9461010C9461010C94610187
:100170000C9461010C9461010C9461010C94610177
:100180000C9461010C9461010C9463010C94610165
:100190000C9461010C9461010C9461010C94610157
:1001A0000C9461010C9461010C9461010C94610147
:1001B0000C9408020C9461010C94F8010C946101F8
:1001C0000C9461010C9461010C9461010C94610127
:1001D0000C9461010C9461010C9461010C94610117
:1001E0000C9461010C9461010C9461010C94610107
:1001F0000C94610107634236B79BD8A71A39685639
:1002000018AEBAAB558C1D3CB7CC5763BD6DEDFD38
:10021000753EF6177231BF000000803F08000000F5
:10022000BE922449123EABAAAA2ABECDCCCC4C3EEB
:1002300000000080BEABAAAAAA3E00000000BF00DA
:100240000000803F0000000000084178D3BB4387D6
:10025000D1133D190E3CC3BD4282AD2B3E68EC82EA
:1002600076BED98FE1A93E4C80EFFFBE01C4FF7F6F
:100270003F000000000011241FBECFEFDFE3DEBF10
:10028000CDBF00E00CBF18BE19BE1ABE1BBE10E2E7
:10029000A0E0B0E2EEE3FDE100E00BBF02C007909A
:1002A0000D92AC3BB107D9F71BBE10E2ACEBB0E24C
:1002B00001C01D92AB3EB107E1F70E942E090C94DC
:1002C000470E0C9400001F920F920FB60F9208B6C3
:1002D0000F9209B60F920BB60F9211242F933F93F2
:1002E0004F935F936F937F938F939F93AF93BF933E
:1002F000EF93FF938091BE209091BF200097E9F487
:1003000080910804909109048734910508F459C03C
:1003100080EC90E260E070E20E94EE078091DA20CB
:1003200080FFFCCF81E090E08093BE209093BF20BF
:10033000109208041092090444C08091080490911E
:10034000090487349105E8F11092BE201092BF2075
:1003500080910804909109048093BC209093BD2063
:1003600010920804109209048091BC209091BD2045
:1003700027E18137920728F01092BC201092BD200F
:100380000EC08091BC209091BD2023E18938920756
:1003900030F088E893E18093BC209093BD20809159
:1003A000BC209091BD208093280B9093290B80EC6A
:1003B00090E26EE070E20E94EE078091DA2080FF0A
:1003C000FCCFFF91EF91BF91AF919F918F917F9162
:1003D0006F915F914F913F912F910F900BBE0F90B6
:1003E00009BE0F9008BE0F900FBE0F901F9018957A
:1003F0001F920F920FB60F9208B60F92112410920F
:10040000E4060F9008BE0F900FBE0F901F90189536
:100410001F920F920FB60F9208B60F9211248F936E
:100420008FEF8093E4068F910F9008BE0F900FBE60
:100430000F901F9018951F920F920FB60F9208B64B
:100440000F9209B60F920BB60F9211242F933F9380
:100450004F935F936F937F938F939F93AF93BF93CC
:10046000EF93FF9380EC90E20E948203FF91EF9163
:10047000BF91AF919F918F917F916F915F914F91BC
:100480003F912F910F900BBE0F9009BE0F9008BEA9
:100490000F900FBE0F901F9018951F920F920FB6DE
:1004A0000F9208B60F9209B60F920BB60F92112455
:1004B0002F933F934F935F936F937F938F939F936C
:1004C000AF93BF93EF93FF9380EC90E20E945D03A4
:1004D000FF91EF91BF91AF919F918F917F916F911C
:1004E0005F914F913F912F910F900BBE0F9009BEDE
:1004F0000F9008BE0F900FBE0F901F9018950F938E
:10050000DF93CF930F92CDB7DEB72FB72983F8943F
:100510001BBEFC0108ED04BF608389818FBF0F9073
:10052000CF91DF910F9108950F931F93182F823071
:1005300061F0833028F4882371F0813029F50DC0F3
:10054000833029F0843001F504C004E007C008E0DE
:1005500005C000E103C001E001C002E0809150004D
:10056000802B80935000642B81E490E00E947F02F6
:10057000809151008023E1F380E490E0612F0E949C
:100580007F0221E030E002C02FEF3FEFC9011F9151
:100590000F9108950F931F93CF93DF93EC018B017D
:1005A000809140008770823071F0833030F488236E
:1005B000B1F1813009F079C00BC0833071F0843023
:1005C00009F073C00FC080E09DE7A0E0B0E02BC051
:1005D00080E098E4A8EEB1E026C080E094E2A4EFC9
:1005E000B0E021C08091550080E894E8AEE1B0E031
:1005F00088839983AA83BB83609155006F7109F446
:1006000061E070E080E090E020E834E84EE150E006
:100610000E945C0E688379838A839B8308C080E88C
:1006200094E8AEE1B0E088839983AA83BB8380918C
:10063000410090E08C77907095958795959587957A
:1006400001978132910560F4FC01EE0FFF1FEE0F60
:10065000FF1FE65DFF4D208131814281538104C03F
:1006600021E030E040E050E080914100837081FF64
:1006700008C092E0220F331F441F551F9A95D1F7EF
:1006800006C080FF04C0220F331F441F551F68811E
:1006900079818A819B810E947B0EF80120833183BE
:1006A0004283538321E030E002C02FEF3FEFC901C6
:1006B000DF91CF911F910F910895CF93DF93EC01BC
:1006C0008A8D80FD1CC09B898C89981741F48A8D86
:1006D00081608A8F8A8D8D7F8A8F1C8A0FC0A88146
:1006E000B981EE85FF858B89E80FF11D90819C9380
:1006F0008F5F8B8B9B898D89981708F01B8ADF9100
:10070000CF910895DC01ED91FC9111978081529673
:100710008C9352975B968C915B9780FF07C0ED910D
:10072000FC91119752968C91529780835096ED913F
:10073000FC91519756968C915697E80FF11D529661
:100740009C91529790838F5F56968C9356975696AE
:100750009C91569759968C915997981718F05696E0
:100760001C92569756969C91569757968C915797F0
:10077000981771F55A968C915A9788605A968C936F
:100780005A9792968C919297813069F456968C91F3
:10079000569758968C9358975A968C915A9784608E
:1007A0005A968C93089556968C9156978F5F5796CC
:1007B0008C93579759962C91599757968C91579798
:1007C00030E090E0821793071CF057961C925797E1
:1007D00058968C915897882311F157968C9157977A
:1007E00058969C915897980F59968C9159978917BC
:1007F00020F459968C915997981B56968C91569740
:10080000891769F45A968C915A9784605A968C93FA
:100810005A9756968C91569758968C9308955B9656
:100820008C915B978E7109F464C05B968C915B9799
:1008300084FF16C052968C915297883089F4569650
:100840008C915697825056968C9356975096ED9170
:10085000FC91519756968C91E80FF11D10820895E6
:100860005B968C915B9782FD02C020E007C0529698
:100870008C91529720E08D3009F421E05B968C91A9
:100880005B9781FF06C052968C9152978A3009F48B
:1008900021E05B968C915B9783FF1DC056968C91EF
:1008A00056978230C0F05096ED91FC915197569634
:1008B0008C91569790E00297E80FF91FE0815296CD
:1008C0008C9152978D3019F4EA3029F406C08A30A1
:1008D00011F4ED3011F0222361F05A968C915A9761
:1008E00084605A968C935A9756968C915697589640
:1008F0008C930895DC010097B1F05A968C915A9729
:1009000080FF11C05A968C915A9784FF0CC01296A2
:10091000ED91FC911397808185FFF9CFED91FC91CA
:10092000608380E008958FEF0895DC01009711F453
:1009300080E008951496ED91FC911597908114969E
:10094000ED91FC91159780818F7C808320E030E0D1
:1009500002C02F5F3F4F1296ED91FC911397E07804
:10096000F0708081882321F484E02030380789F7F3
:10097000ED91FC91119780811496ED91FC91159762
:1009800090830895CF93DF93DC01EB01009711F47E
:100990008FEF5EC057964C91579750E05096ED916F
:1009A000FC915197E40FF11D8081FE01E50FF11DCF
:1009B00080834F5F5F5F59968C91599790E0242F09
:1009C00030E0281739070CF040E058968C91589782
:1009D000481721F7C50FD11D188258968C9158974A
:1009E00057968C93579759962C91599757968C9167
:1009F000579730E090E0821793071CF057961C92AF
:100A0000579758961C9258975A968C915A978B7F65
:100A10005A968C935A975A968C915A9783FF17C07F
:100A200057961C92579756961C9256975096ED9152
:100A3000FC91519756968C915697E80FF11D80E2E4
:100A400080835A968C915A97877F5A968C9380E030
:100A5000DF91CF910895DC01009731F48FEF089575
:100A6000ED91FC911197E0811296ED91FC91139715
:100A7000808187FDF5CF56961C92569757961C920B
:100A8000579758961C9258975A968C915A978B7FE5
:100A90005A968C9380E00895DC01009711F48FEF53
:100AA000089563FF07C01696ED91FC91179780811A
:100AB000886006C01696ED91FC9117978081877F1C
:100AC000808364FF07C01696ED91FC911797808193
:100AD000806106C01696ED91FC91179780818F7EFC
:100AE00080831696ED91FC911797808183FF05C056
:100AF0005A968C915A97816104C05A968C915A9754
:100B00008F7E5A968C935A971696ED91FC91179773
:100B1000808184FF08C05A968C915A9780625A96B9
:100B20008C9380E008955A968C915A978F7D5A96AF
:100B30008C9380E008950F931F93CF93DF93EC0184
:100B4000162F042F009711F48FEF25C0662349F468
:100B500088899989892B29F0888999890E94AE0D05
:100B600006C0812F90E00E94180D888B998B00237E
:100B700049F48E859F85892B29F08E859F850E945B
:100B8000AE0D06C0802F90E00E94180D8E879F87C3
:100B9000198F0D8B80E0DF91CF911F910F910895F8
:100BA0002F923F924F925F926F927F928F92AF926D
:100BB000BF92CF92DF92EF92FF920F931F93DF933A
:100BC000CF930F920F92CDB7DEB73C0119012A01E6
:100BD000A982BA822F89398DD30154961C925497D9
:100BE00053961C9253975A961C925A975D966C9303
:100BF000613D710509F495C0623D71055CF4613C8D
:100C00007105F1F1603D710509F46AC0603C710540
:100C1000A1F415C0613E710509F4D4C0623E7105AE
:100C200024F4603E710549F4ACC0603F710509F4DD
:100C3000F9C0613F710509F416C18FEFBBC180EAAD
:100C400098E0F3018083918381EA98E08283938323
:100C500083EA98E08483958384EA98E08683978387
:100C600085EA98E08087918786EA98E08287938773
:100C700087EA98E0848795878091400688602DC038
:100C800080EB98E0D3018D939C93119781EB98E0D2
:100C900012968D939C93139783EB98E014968D9303
:100CA0009C93159784EB98E016968D939C931797D9
:100CB00085EB98E018968D939C93199786EB98E0B6
:100CC0001A968D939C931B9787EB98E01C968D93B7
:100CD0009C931D9780914006806880934006F2C0E7
:100CE00080EA99E0F3018083918381EA99E082832D
:100CF000938383EA99E08483958384EA99E08683E9
:100D0000978385EA99E08087918786EA99E08287D0
:100D1000938787EA99E08487958780916006886049
:100D20002DC080EB99E0D3018D939C93119781EBBB
:100D300099E012968D939C93139783EB99E0149608
:100D40008D939C93159784EB99E016968D939C93C5
:100D5000179785EB99E018968D939C93199786EBDE
:100D600099E01A968D939C931B9787EB99E01C96BC
:100D70008D939C931D978091600680688093600698
:100D8000A1C080EA9AE0F3018083918381EA9AE02E
:100D90008283938383EA9AE08483958384EA9AE04A
:100DA0008683978385EA9AE08087918786EA9AE02E
:100DB0008287938787EA9AE0848795878091800667
:100DC00088602DC080EB9AE0D3018D939C9311979E
:100DD00081EB9AE012968D939C93139783EB9AE0A4
:100DE00014968D939C93159784EB9AE016968D93A9
:100DF0009C93179785EB9AE018968D939C9319977F
:100E000086EB9AE01A968D939C931B9787EB9AE05A
:100E10001C968D939C931D9780918006806880938B
:100E2000800650C080EA9BE0F3018083918381EAD1
:100E30009BE08283938383EA9BE08483958384EAA7
:100E40009BE08683978385EA9BE08087918786EA8B
:100E50009BE08287938787EA9BE0848795878091D0
:100E6000A00688602DC080EB9BE0D3018D939C93FE
:100E7000119781EB9BE012968D939C93139783EBD4
:100E80009BE014968D939C93159784EB9BE01696AC
:100E90008D939C93179785EB9BE018968D939C936D
:100EA000199786EB9BE01A968D939C931B9787EB83
:100EB0009BE01C968D939C931D978091A006806863
:100EC0008093A006D3011496ED91FC9115970083B1
:100ED0001696ED91FC91179710821896ED91FC9162
:100EE00019972829232B2083C701B60124E630E077
:100EF00040E050E00E945C0E7B018C01E981FA81A8
:100F0000BF01882777FD8095982F0E94C40A9B0116
:100F1000AC0160E070E080E090E40E94B30B9B01C4
:100F2000AC0160E070E080E89FE30E942E0A5B0164
:100F30006C0143E0EE0CFF1C001F111F4A95D1F716
:100F40002E0C3F1C401E511EEE0CFF1C001F111FDB
:100F5000C201B101A80197010E947B0ECA01B9012B
:100F60000E94C20A9B01AC01C601B5010E94500B50
:100F700020E030E040E85FE30E94C9090E94960A41
:100F800080E090E0D3011A96ED91FC911B9760836D
:100F90001C96ED91FC911D9760707F708070907031
:100FA000672F782F892F992729812295207F262B3B
:100FB000208380E00F900F90CF91DF911F910F91D0
:100FC000FF90EF90DF90CF90BF90AF908F907F9089
:100FD0006F905F904F903F902F9008958F929F92C7
:100FE000AF92BF92CF92DF92EF92FF920F931F9337
:100FF000DF93CF93CDB7DEB7CE5FD040CDBFDEBF9E
:101000008C01009709F418C1DC015A968C915A970B
:1010100084FF12C15A968C9181FD0EC1DB010D90A7
:101020000020E9F71197A61BB70BF801858990E01E
:10103000A817B90728F0828D8260828F8DEFFDC0DE
:10104000D80153968C915397882E992454968C915D
:10105000C82EDD24C814D90410F4740108C0F801A6
:1010600085897401E80EF11C0894E108F108EC1878
:10107000FD08D80155968C91559790E001978E15F3
:101080009F0538F455968C91E82EFF240894E108CA
:10109000F1085E010894A11CB11CC5010E94550E07
:1010A000F801848D80FF05C0C5016EEA70E20E94E0
:1010B0004A0ED8015C968C9181FF06C0CE01019644
:1010C00060EB70E20E944A0EF801848D82FF06C038
:1010D000CE01019662EB70E20E944A0EFE0131964B
:1010E000DF010D900020E9F7BD01615070406E1BDB
:1010F0007F0B6E157F0530F0F801828D8260828F44
:101100008EEF9BC0D8015A968C915A978D7F5A9634
:101110008C935A975A968C915A9780FF11C0539688
:101120001C92539754961C92549755968C91E82E86
:10113000FF240894E108F10888249924CC24DD24B4
:10114000EC0CFD1CF801858990E0E816F90618F012
:101150008589E82EFF24960140E050E06E01089456
:10116000C11CD11C10C0D8011E96ED91FC911F9797
:10117000E20FF31FD601A40FB51F8C9180832F5F60
:101180003F4F4F5F5F4F4617570718F42E153F0527
:1011900050F3CB01019748175907D0F4DE0111969F
:1011A000A40FB51F20E030E00AC0F801E684F78400
:1011B000E20EF31E8D91F70180832F5F3F4FC9012F
:1011C000840F951F8617970718F42815390568F3BB
:1011D000D8011E96ED91FC911F97E20FF31F10822C
:1011E00055968C9190E02817390710F080E001C0E7
:1011F000822FF801848B828D80FD02C080E01DC0AB
:10120000D8015A968C915A978E7F5A968C935A97FA
:101210002D913C9111971E96ED91FC911F9753963D
:101220008C915397E80FF11D9081F90190838F5FA6
:1012300053968C9381E001C08FEFC250DF4FCDBF3A
:10124000DEBFCF91DF911F910F91FF90EF90DF9064
:10125000CF90BF90AF909F908F900895CF93DF93E2
:10126000CDB7DEB72897CDBFDEBFF89481E090E020
:1012700060E070E040E050E00E949402CE010596EC
:10128000BE016F5F7F4F0E94CA0287E0E0EAF0E094
:10129000828384E0582E5092000B83E18093010BEF
:1012A0001092020B1092030B1092040B82E08093B9
:1012B000060B8093070B88E893E18093260B9093AD
:1012C000270B80EC92E18093280B9093290B25E06B
:1012D000622E6092430021E0209300048FEF9FEF85
:1012E00080930A0490930B0410920804109209044E
:1012F000109200072093090777247A9470920A07C6
:101300007092B0001092100700D00F9229813A819C
:101310004B815C81EDB7FEB7118212821382148279
:1013200080EC90E261EE70E008E210E0A0E4CA2EEA
:10133000A2E0DA2EE12CF12CBCEFAB2EBFEFBB2EDE
:10134000A3E08A2E912C0E94D0050F900F900F9051
:101350000F9080EC90E260EA40E50E949B0560926D
:10136000DB205092DC2080EC90E268E170E00E948B
:101370004C057092E0067092E406789480EC90E25E
:101380006CE170E20E94EE078091DA2080FFFCCFD2
:10139000FFCF5058BB27AA270ED048C139D130F013
:1013A0003ED120F031F49F3F11F41EF42EC10EF413
:1013B000E095E7FB24C1E92F4AD180F3BA17620711
:1013C00073078407950718F071F49EF562C10EF457
:1013D000E0950B2EBA2FA02D0B01B90190010C0145
:1013E000CA01A0011124FF27591B99F0593F50F45D
:1013F000503E68F11A16F040A22F232F342F4427B5
:10140000585FF3CF469537952795A795F0405395AC
:10141000C9F77EF41F16BA0B620B730B840BBAF07C
:101420009150A1F0FF0FBB1F661F771F881FC2F7E7
:101430000EC0BA0F621F731F841F48F487957795FB
:101440006795B795F7959E3F08F0B3CF9395880FB2
:1014500008F09927EE0F9795879508950CD0E6C070
:10146000DED040F0D5D030F021F45F3F19F0C7C096
:10147000511110C1CAC0EBD098F39923C9F3552379
:10148000B1F3951B550BBB27AA2762177307840777
:1014900038F09F5F5F4F220F331F441FAA1FA9F32D
:1014A00033D00E2E3AF0E0E830D091505040E6951F
:1014B000001CCAF729D0FE2F27D0660F771F881F80
:1014C000BB1F261737074807AB07B0E809F0BB0B6F
:1014D000802DBF01FF2793585F4F2AF09E3F510593
:1014E00068F08DC0D7C05F3FECF3983EDCF3869583
:1014F00077956795B795F7959F5FC9F7880F911D09
:101500009695879597F90895E1E0660F771F881FF4
:10151000BB1F621773078407BA0720F0621B730BA7
:10152000840BBA0BEE1F88F7E095089598D088F0E9
:101530009F5790F0B92F9927B751A0F0D1F0660FBF
:10154000771F881F991F1AF0BA95C9F712C0B130DA
:1015500081F09FD0B1E008959CC0672F782F882735
:10156000B85F39F0B93FCCF3869577956795B39519
:10157000D9F73EF490958095709561957F4F8F4F88
:101580009F4F0895E89409C097FB3EF4909580958D
:10159000709561957F4F8F4F9F4F9923A9F0F92F39
:1015A00096E9BB279395F695879577956795B795B7
:1015B000F111F8CFFAF4BB0F11F460FF1BC06F5F9D
:1015C0007F4F8F4F9F4F16C0882311F096E911C0AF
:1015D000772321F09EE8872F762F05C0662371F0D0
:1015E00096E8862F70E060E02AF09A95660F771FE4
:1015F000881FDAF7880F9695879597F9089597F9D8
:101600009F6780E870E060E008959FEF80EC0895A8
:1016100000240A94161617061806090608950024D1
:101620000A9412161306140605060895092E03944B
:10163000000C11F4882352F0BB0F40F4BF2B11F4BF
:1016400060FF04C06F5F7F4F8F4F9F4F089557FD1E
:101650009058440F551F59F05F3F71F04795880F20
:1016600097FB991F61F09F3F79F0879508951216B7
:1016700013061406551FF2CF4695F1DF08C0161663
:1016800017061806991FF1CF869571056105089414
:101690000895E894BB2766277727CB0197F908952B
:1016A0000BD0C4CFB5DF28F0BADF18F0952309F0CE
:1016B000A6CFABCF1124EECFCADFA0F3959FD1F315
:1016C000950F50E0551F629FF001729FBB27F00DF0
:1016D000B11D639FAA27F00DB11DAA1F649F662745
:1016E000B00DA11D661F829F2227B00DA11D621F94
:1016F000739FB00DA11D621F839FA00D611D221F4E
:10170000749F3327A00D611D231F849F600D211D31
:10171000822F762F6A2F11249F5750408AF0E1F0D4
:1017200088234AF0EE0FFF1FBB1F661F771F881F1D
:1017300091505040A9F79E3F510570F060CFAACF5D
:101740005F3FECF3983EDCF3869577956795B79508
:10175000F795E7959F5FC1F7FE2B880F911D969532
:10176000879597F90895FA01EE0FFF1F309621052E
:10177000310599F16115710561F48038BFE39B076C
:1017800049F168949038810561F08038BFEF9B077C
:1017900041F0992342F5FF3FE1053105210511F1A3
:1017A000E8940894E795D901AA2329F4AB2FBE2F1A
:1017B000F85FD0F310C0FF5F70F4A695E0F7F7393B
:1017C00050F019F0FF3A38F49F779F930CD00F90A8
:1017D00007FC905808953EF018CF60E070E080E874
:1017E0009FE308954FE79F775F934F933F932F9326
:1017F0009ED02F913F914F915F9152DF05C019F418
:101800000EF0FDCE46CF01CF2ADFC8F39638C0F7E1
:1018100007F80F92E8942BE33AEA48EB5FE74EDFD4
:101820000F920F920F924DB75EB70F92C0D0E4EFB8
:10183000F1E016D04F915F91EF91FF91E595EE1F8A
:10184000FF1F49F0FE57E0684427EE0F441FFA954A
:10185000E1F74195550B32D00F9007FE26C0089551
:10186000DF93CF931F930F93FF92EF92DF927B0151
:101870008C01689405C0DA2EEF011EDFFE01E894AA
:10188000A5912591359145915591AEF3EF0193DDE9
:10189000FE019701A801DA9479F7DF90EF90FF90AD
:1018A0000F911F91CF91DF9108959B01AC0160E0F2
:1018B00070E080E89FE3D2CDA2CEACC0D0DEE8F3EA
:1018C0009923D9F3940F511DBBF39150504094F0DC
:1018D00059F0882332F0660F771F881F91505040CF
:1018E000C1F79E3F510544F7880F911D9695879546
:1018F00097F908955F3FACF0983E9CF0BB27869522
:1019000077956795B79508F4B1609395C1F7BB0FCC
:1019100058F711F460FFE8CF6F5F7F4F8F4F9F4FF5
:10192000E3CFB8CE0EF076C070CE689468CE97DE66
:10193000C8F39923D1F3C6F3DF93CF931F930F938B
:10194000FF92C92FDD2788232AF02197660F771F82
:10195000881FDAF720E030E040E85FEB9FE388394A
:1019600020F0803E30F021968F7714DDECE1F2E03C
:1019700003C010DDE9E4F2E073DF8B01BE01EC018E
:10198000FB2E6F5771097595771F880B990BFCDD3E
:1019900028E132E741E35FE38FDEAF2D9801AE012E
:1019A000FF900F911F91CF91DF9105DD3FCEFA019E
:1019B000DC01AA0FBB1F9B01AC01BF5728F42227F3
:1019C0003327442750781FC0B75188F4AB2F002429
:1019D000469537952795011CA395D2F3002069F011
:1019E000220F331F441FB395DAF30DD0D2CC6130F0
:1019F0007105A0E88A07B94630F49B01AC0166275F
:101A0000772788279078309621F02083318342838E
:101A1000538308959F3F31F0915020F48795779537
:101A20006795B795880F911D9695879597F90895B5
:101A3000CF93DF93AC018230910510F442E050E087
:101A4000E091E920F091EA2020E030E0A0E0B0E071
:101A500024C08081918184179507D0F08417950761
:101A600071F482819381109729F012968D939C9343
:101A700013972CC08093E9209093EA2027C021156A
:101A8000310519F08217930718F49C01BD01EF018D
:101A900092818381DF01E92FF82F3097D1F621154C
:101AA0003105F9F0C901841B950B8430910580F450
:101AB0008A819B816115710521F0FB0182839383EB
:101AC00004C08093E9209093EA20FE01329642C040
:101AD000FE01E80FF91F4193519302978883998380
:101AE00039C08091E7209091E820009741F48091DF
:101AF000B7209091B8208093E7209093E820209120
:101B0000B5203091B6202115310541F42DB73EB7EF
:101B10008091B9209091BA20281B390BE091E720E1
:101B2000F091E820E217F30798F42E1B3F0B2417DF
:101B3000350770F0CA0102962817390748F08E0F52
:101B40009F1F8093E7209093E8204193519302C018
:101B5000E0E0F0E0CF01DF91CF9108950F931F9364
:101B6000CF93DF939C01009709F48CC0DC0112979E
:101B700012961D921C9213976091E9207091EA20B1
:101B80006115710589F48D919C911197820F931FB6
:101B90002091E7203091E8202817390769F5A093B4
:101BA000E720B093E8206EC0FB0140E050E001C0A8
:101BB000FC01EA17FB0730F482819381AF010097A3
:101BC000B9F71FC0E9012297EA83FB8308811981D5
:101BD000C901800F911F8E179F0759F48081918151
:101BE000800F911F029688839983828193818A83D3
:101BF0009B834115510529F4A093E920B093EA2075
:101C000041C0FA01A283B383C191D191EC0FFD1FB2
:101C1000AE17BF0781F4F901929182918C0F9D1F3D
:101C20000296DA018D939C9311978281938112968B
:101C30008D939C931397E0E0F0E002C0FB01BC01A0
:101C4000DB0112968D919C9113970097B9F7CB0108
:101C500002962D913C911197820F931F2091E720BE
:101C60003091E8202817390769F4309729F4109249
:101C7000E9201092EA2002C0128213826093E720CA
:101C80007093E820DF91CF911F910F910895F89400
:101C90000C949D0EFB01DC010D900020E9F71197DB
:101CA00001900D920020E1F70895FB01DC01019005
:101CB0000D920020E1F70895629FD001739FF0011B
:101CC000829FE00DF11D649FE00DF11D929FF00DCC
:101CD000839FF00D749FF00D659FF00D9927729F03
:101CE000B00DE11DF91F639FB00DE11DF91FBD018E
:101CF000CF0111240895A1E21A2EAA1BBB1BFD01DE
:101D00000DC0AA1FBB1FEE1FFF1FA217B307E407DA
:101D1000F50720F0A21BB30BE40BF50B661F771F32
:101D2000881F991F1A9469F7609570958095909512
:0E1D30009B01AC01BD01CF010895F894FFCFD7
:101D3E00537461727465642074696D6572005374B6
:101D4E006F707065642054696D657200496E6974B8
:101D5E0069616C697A65640001000200000001008F
:101D6E000000040000000100000008000000010057
:101D7E000000100000000100000020000000010023
:101D8E000000400000000100000080000000010083
:101D9E000000000100000100000001000000010031
:101DAE000000010000000100000001000000010021
:101DBE000000010000000100000001000000010011
:101DCE000000010000000100000001000000010001
:101DDE0000000100000001000000000200000A00E7
:0C1DEE000D000D0A000000EB202000009A
:00000001FF
